:020000040800F2
:10000000C8060020910200080D140008051400081D
:1000100009140008890400083916000800000000CF
:10002000000000000000000000000000151400089F
:100030008D040008000000001114000819140008C5
:10004000AB020008AB020008AB020008AB020008DC
:10005000AB020008AB020008AB020008AB020008CC
:10006000AB020008AB020008AB020008AB020008BC
:10007000AB020008AB020008AB020008AB020008AC
:10008000AB020008AB020008AB020008AB0200089C
:10009000AB020008AB020008AB020008AB0200088C
:1000A000AB020008AB020008AB020008AB0200087C
:1000B000D9140008AB020008AB020008AB0200082C
:1000C000AB020008AB020008AB020008AB0200085C
:1000D000AB020008AB020008AB020008AB0200084C
:1000E000AB020008AB020008AB020008AB0200083C
:1000F000AB020008AB020008AB020008AB0200082C
:10010000AB020008AB020008AB020008AB0200081B
:10011000AB020008AB020008AB020008AB0200080B
:10012000AB020008AB020008AB020008AB020008FB
:10013000AB0200080000000000000000AB02000855
:10014000AB020008AB020008AB020008AB020008DB
:10015000AB020008AB020008AB020008AB020008CB
:10016000AB020008AB020008AB020008AB020008BB
:10017000AB020008AB020008AB0200080000000060
:1001800000000000AB0200080000000000000000BA
:10019000AB0200080000000000000000AB020008F5
:1001A000000000000000000000000000AB0200089A
:1001B000AB020008AB020008AB020008AB0200086B
:1001C000AB02000800F002F800F052F814A696E81E
:1001D000000CB244B344DA4501D100F049F8BAE862
:1001E0000F000FA696E83000A5EB040504EB060708
:1001F000AAEB0704A7F101074FEA15154FEA3414DB
:10020000A4F10104AC4201D300F032F813F0010F65
:1002100018BFFB1A43F0010300F001F8DBE71847B1
:100220004815000068150000103A24BF78C878C14E
:10023000FAD8520724BF30C830C144BF04680C60EC
:1002400070470000704700000023002400250026AE
:10025000103A28BF78C1FBD8520728BF30C148BF29
:100260000B6070471FB501F052FA1FBD10B510BDED
:1002700000F0D0F81146FFF7F5FF01F0DFF900F0CC
:10028000EEF803B4FFF7F2FF03BC00F0F5F800004E
:100290000948804709480047FEE7FEE7FEE7FEE71A
:1002A000FEE7FEE7FEE7FEE7FEE7FEE70448054956
:1002B000054A064B70470000C5140008C501000838
:1002C000C8000020C8060020C8020020C802002084
:1002D00053EA020C00F069802DE9F04B4FF0000664
:1002E000002B1FBFB3FA83F503FA05F424FA05F6D1
:1002F0005E4012BF1643B2FA82F502FA05F4C5F168
:1003000020051EBF22FA05FC44EA0C04203556EAFB
:10031000044C4FEA144418BF641C4FF000084FF01F
:100320000009904271EB030C39D3002919BFB1FACF
:1003300081F701FA07F6B0FA80F700FA07F6C7F17D
:1003400020071EBF20FA07FC46EA0C062037B6FB42
:10035000F4FCA7EB0507103F07F01F0BCBF12006BD
:100360002CFA06F60CFA0BFB44BFB3460026202FEE
:10037000A4BF5E464FF0000B5BEA060C08BF4FF0CF
:10038000010B19EB0B0948EB0608ABFB027C06FBE3
:1003900002CC0BFB03CCC01B71EB0C01C1E70B467D
:1003A000024641464846BDE8F08B13B5084318BFE6
:1003B0004FF0FF300146AFF30080BDE81C407047AE
:1003C0004FF0000200B5134694469646203922BFEE
:1003D000A0E80C50A0E80C50B1F12001BFF4F7AF39
:1003E000090728BFA0E80C5048BF0CC05DF804EB1B
:1003F000890028BF40F8042B08BF704748BF20F889
:10040000022B11F0804F18BF00F8012B7047704786
:1004100070477047754600F02BF8AE4605006946F8
:10042000534620F00700854618B020B5FFF73EFF81
:10043000BDE820404FF000064FF000074FF00008E5
:100440004FF0000BAC46ACE8C009ACE8C009ACE822
:10045000C009ACE8C00921F007018D46704710B50E
:100460000446AFF300802046BDE81040FFF709BF07
:10047000004870471000002001491820ABBEFEE77D
:100480002600020070470000FEE7000070470000F1
:100490002DE9F04F83B000F1200200F13E4741F614
:1004A0000005009207F1FF77C4F2020507224FEA28
:1004B000B726A84208BF062200254FF000084FF0DB
:1004C0000009062E38BF4FEAB72201920AE000BFAA
:1004D00009F1010908F10208B9F1100F05F104054D
:1004E00000F0A2800F68012202FA09FE17EA0E0A44
:1004F000EED0D1F804C003220CF003077E1E02FAEE
:1005000008F4012E6FEA040B12D88468CE6804EA5E
:100510000B0406FA08F634438460446824EA0E06A5
:10052000CCF3001404FA09F42643466004E000BF4B
:10053000032F01D103271EE0C6688C6806EA0B066C
:1005400004FA08F42643022FC66014D16FF00302A8
:10055000009E02EA590756F807C005F01C040F2256
:100560000B69A2402CEA0202A3401A43F251D1F8CF
:1005700004C00CF00307026807FA08F302EA0B0252
:100580001A431CF4403F0260A2D0002243F6440309
:100590000292C4F202031A6843F6004442F4804215
:1005A0001A601A68C4F2010402F480420292029AAC
:1005B00029F003024FF6084C2244CFF6FF7C52F894
:1005C0000C3005F00C070F26BE40B343019E06FA1F
:1005D00007F73B4342F80C30A2684B6842EA0A072F
:1005E00043F60C4CDE0258BF22EA0A07A760C4F2A9
:1005F000010CDCF800209E0242EA0A0758BF22EAFA
:100600000A07CCF8007062689E0342EA0A0758BFE6
:1006100022EA0A0767602268DB0342EA0A0758BF3A
:1006200022EA0A07276053E703B0BDE8F08F000015
:1006300040F2C000C2F200000068704740F20000C3
:1006400040F2C001C2F20000C2F2000100780A6864
:10065000104408607047000080B543F60040C4F2C3
:100660000200016841F400710160016841F4806199
:100670000160016841F480710160032000F088F896
:10068000002000F005F800F027F8002080BD0000F1
:1006900070B540F20006C2F2000640F2080132785E
:1006A000C2F200014FF47A730968B3FBF2F2044618
:1006B000B1FBF2F1084600F06DFB0F2C4FF0010585
:1006C00008D838B94FF0FF3021460022002500F04D
:1006D00033F87460284670BD82B0002043F64001B4
:1006E0000190C4F202014A6842F480424A604A68BA
:1006F00002F480420192019A0090086840F0805014
:100700000860086800F0805000900098072002B050
:1007100000F03EB8002848BF704700F01F010122DA
:1007200002FA01F11C2202EAD0004EF20012CEF2CF
:10073000000281507047000010B54EF60C5CCEF2FE
:10074000000CDCF80030C3F3022E8EF00704042CFA
:1007500028BF0424BEF103034FF0FF3E0EFA04F459
:1007600038BF0023A14399400EFA03F39A43114383
:1007700000F00F0200F160430901043A03F56443FD
:100780006244002848BF02F10C03197010BD00003C
:100790004EF60C51CEF200010A684FF6FF031A40E4
:1007A00060F30A2242F0806040F0FD7008607047FC
:1007B000002804BF012070472DE9F04143F60808E6
:1007C000C4F202080446D8F8F8030D4600F00F0002
:1007D000814207D988F8F853D8F8F80300F00F00E1
:1007E000A84277D12068810717D5410705D5D8F8E9
:1007F000001041F4E051C8F80010010705D5D8F801
:10080000001041F46041C8F80010D8F80010A26848
:1008100021F0F0011143C8F80010C00740D1D8F80A
:10082000F80300F00F00854207D288F8F853D8F893
:10083000F80300F00F00A8424CD12068410707D50B
:10084000D8F80010E26821F4E0511143C8F8001014
:10085000000708D5D8F80000216920F4604040EA7C
:10086000C100C8F8000000F055F8D8F8001041F2B7
:100870002872C1F30311C0F60002515C40F2080275
:1008800020FA01F140F20400C2F200000068C2F256
:1008900000021160FFF7FCFE0020BDE8F08100BF00
:1008A0006068811E022907D258F8081C89015CBFC4
:1008B0000120BDE8F08111E0012807D158F8081C9B
:1008C00089035CBF0120BDE8F08107E058F8081CEF
:1008D000890703D40120BDE8F08100BFD8F80010DB
:1008E00021F003010843C8F80000FFF7A1FE064607
:1008F00041F28837D8F80000616800F00C00B0EBD6
:10090000810F8CD0FFF794FE801BB842F2D90320F0
:10091000BDE8F08110B543F60404C4F20204606837
:10092000C0F3810142F20040C0F2F400DFE801F0C0
:100930004202081841F20020C0F27A0010BD00BF48
:10094000216801F03F02216823684902C3F388113E
:1009500016D4A1FB00010023FFF7BAFC17E000BF8B
:10096000216801F03F02216823684902C3F388111E
:1009700014D4A1FB00010023FFF7AAFC15E000BF7F
:1009800041F20020C0F27A004843B0FBF2F0216847
:100990000222C1F3014102EB410109E041F20020D2
:1009A000C0F27A004843B0FBF2F02168C1F3027153
:1009B000B0FBF1F010BD0000002804BF012070471B
:1009C0002DE9F04182B00446007843F60006C007E6
:1009D000C4F202060CD0B06800F00C00042840F00D
:1009E00089803068800303D56068002800F050815A
:1009F0002078800723D5B06810F00C0F11D0B068B4
:100A000000F00C00082802D17068400209D5B068D7
:100A100000F00C000C2840F09F807068400200F14C
:100A20009B803068800703D5E068012840F0308162
:100A30003068216920F0F80040EAC1003060207879
:100A4000000713D4207840072AD4A569002D00F0B0
:100A50001A81B06800F00C00082840F0AB80012D2E
:100A600040F0E880012002B0BDE8F0816069002814
:100A700040F20000C4F2472000F088800121C0F855
:100A8000801EFFF7D5FD0546706F8007DAD4FFF7AB
:100A9000CFFD401B0228F7D9032002B0BDE8F0814A
:100AA000306C5FEAC0080AD400200190306C40F03E
:100AB00080503064306C00F080500190019847F213
:100AC0000007C4F200073868C00537D4386840F41E
:100AD00080703860FFF7ACFD054600BF3868C00580
:100AE0002CD4FFF7A5FD401B0228F7D9032002B044
:100AF000BDE8F081B06800F00C00082803D17068F0
:100B000040023FF56EAFB06800F00C000C2803D136
:100B1000706840023FF565AF61683068B1F5803FAD
:100B200007D0B1F5A02F40F0CB8040F4802030609A
:100B3000306840F480303060CBE000BFA168306F97
:100B4000012905D0052957D140F004003067306FE6
:100B500040F00100306759E0E068002800F09C8018
:100B60000020C4F2472001210160FFF761FD054626
:100B7000306880073FF55CAFFFF75AFD401B022845
:100B80004FF00300F4D902B0BDE8F0810021C0F8B5
:100B9000801EFFF74DFD0546706F80077FF552AF51
:100BA000FFF746FD401B0228F6D9032002B0BDE83E
:100BB000F08100BF0027C4F2472700203866FFF706
:100BC00037FD022D05460BD13068800140F192803F
:100BD000FFF72EFD401B02284FF00300F4D9D2E7A7
:100BE000306880014FD5FFF723FD401B02284FF0EE
:100BF0000300F5D9C7E700BF20F001003067306F70
:100C0000002920F00400306700F09880FFF710FD05
:100C1000054641F2883700BF306F800700F1A080A1
:100C2000FFF706FD401BB842F6D9032002B0BDE82D
:100C3000F08100BF7068E16900F480028A4227D128
:100C4000216A00F03F028A4222D147F6C071626AEF
:100C50000140B1EB821F1BD1A16A4FF6FF73C9039C
:100C6000994300F44032A1F580318A4210D1E16A03
:100C700000F07062B2EB016F0AD1216B00F0E0402E
:100C8000B0EB017F04D1002002B0BDE8F08100BFCD
:100C9000012002B0BDE8F0810020C4F2472000210D
:100CA0000160FFF7C5FC0546306880077FF5C7AED9
:100CB000FFF7BEFC401B02284FF00300F4D962E7A7
:100CC00020F4803030603068002920F480203060CB
:100CD00050D0FFF7ADFC0546306880033FF588AE85
:100CE000FFF7A6FC401B6428F6D9032002B0BDE83C
:100CF000F08100BF04F11C052FCD246B084340EAAE
:100D00008210D9034FF6FF729143A1F5803140EA7A
:100D10000560084340EA0470706001203866FFF700
:100D200087FC044630688001ADD4FFF781FC001BCE
:100D300002284FF00300F5D925E700BFFFF778FC44
:100D4000054641F2883700BF306F800708D5FFF7AE
:100D50006FFC401BB8424FF00300F5D913E700BF0A
:100D6000B8F1000F3FF571AE306C20F08050306468
:100D70006BE600BFFFF75CFC054600BF30688003F0
:100D80007FF536AEFFF754FC401B64284FF003009C
:100D9000F4D9F8E6411E0020B0EB116F1CBF012012
:100DA00070474EF21002CEF2000251604EF623510F
:100DB000CEF20001F0230B700721906011607047A4
:100DC000704700007047000090F83C20012A4FF067
:100DD000020254D010B580F83D200268D2F804E039
:100DE000D2F808C00C682EF07003234341F2FF7460
:100DF000C4F20004A24253600EDC40F2FF73C4F25E
:100E000000039A4216DCB2F1804F2BD040F200432F
:100E1000C4F2000324E000BF40F2FF33C4F2010338
:100E20009A4213DC41F60003C4F200039A4219D03F
:100E3000002313E040F60003C4F200039A4211D0ED
:100E400040F60043C4F200030AE000BF44F200038E
:100E5000C4F201039A4205D040F20043C4F20103F8
:100E60009A4204D149682CF0800319439160012112
:100E7000002280F83D1080F83C20BDE8104010466C
:100E8000704700007047000090F83C30012B04BF11
:100E9000022070474FEAB202032A00F28D80F0B5BB
:100EA000DFE802F0026426460368D1E900C5D1F804
:100EB0000CE01C6A1A6A41F2FF7722F001021A6202
:100EC0001A4652F8186FC4F20007BB427ADC40F2AF
:100ED000FF77C4F20007BB4200F38280B3F1804F7A
:100EE00000F0968040F20047C4F200078EE000BF99
:100EF0000768D1E900C5D1E902313C6A3A6A61F379
:100F0000071522F480723A623A4652F81C6F26F0B6
:100F1000F30645EA060124F420660CF00A0546EAC9
:100F2000052611603E62116821F00C01116080E01D
:100F30000368D1E900E6D1E902C11C6A1A6A3602E7
:100F400022F480521A621A4652F81C5F4FF2FF07D1
:100F5000BE4325F4734561F30F3624F420440EF0AC
:100F60000A0746EA050144EA07371CE00368D1E9AD
:100F700000E6D1E902C11C6A1A6A360222F01002A8
:100F80001A621A4652F8185F4FF2FF07BE4325F463
:100F9000734561F30F3624F0A0040EF00A0746EA09
:100FA000050144EA071711601F6211684FEA0C231C
:100FB00021F4406111603CE00121002280F83C20D6
:100FC0000846704740F2FF37C4F20107BB4213DC0A
:100FD00041F60007C4F20007BB4219D0002713E016
:100FE00040F60007C4F20007BB4211D040F60047AC
:100FF000C4F200070AE000BF44F20007C4F2010790
:10100000BB4205D040F20047C4F20107BB421BD1EE
:1010100026F00306354324F00A070CF00A066EF3A7
:10102000071537449D611F629F6927F00C079F6178
:101030008B681168194311600021BDE8F04000225F
:1010400080F83C200846704746F00105E3E70000C1
:10105000002804BF0120704710B5044690F83D00F9
:1010600028B9002084F83C00204600F01FF8022038
:1010700084F83D002068211D00F040FA012084F82A
:10108000460084F83E0084F83F0084F8400084F86D
:10109000410084F8420084F8430084F8440084F856
:1010A000450084F83D00002010BD000080B586B0EA
:1010B00000680021B0F1804F0591CDE90311029144
:1010C000019101D006B080BD43F630000091C4F21A
:1010D0000200026942F001020261026902F00102AB
:1010E0000092009A0091026842F0010202600068DA
:1010F000022200F001000090009801200190CDE94B
:1011000004100020CDE90221C4F2020001A9FFF77A
:10111000BFF91C2000210022FFF70EFB1C20FFF767
:10112000F9FA06B080BD000031B3042908D00829BF
:1011300019BF4FF0450C41234FF0440C402302E00F
:101140004FF0430C3F23C25C10F80C30012A4FF0E3
:10115000010208BF012B63D10222082922D00429F1
:1011600054D180F83F2080F843204FEAB103032B8D
:101170004FF0010220D953E090F83E2090F8423021
:10118000012A4FF0010208BF012B49D1022280F849
:101190003E2080F842204FEAB103032B4FF00102BA
:1011A0000AD93DE080F8402080F844204FEAB1039E
:1011B000032B4FF0010233D841F2387C0068C0F6AF
:1011C000000C5CF823C0C36801F01F0143EA0C0364
:1011D000C360036A02FA01F123EA01020262026AB1
:1011E000114341F2FF72C4F200029042016219DC25
:1011F00040F2FF71C4F20001884221DCB0F1804F5F
:1012000036D040F20041C4F200012FE080F84120C6
:1012100080F845204FEAB103032B4FF00102CBD9F0
:101220001046704740F2FF31C4F20101884213DCDE
:1012300041F60001C4F20001884219D0002113E0F8
:1012400040F60001C4F20001884211D040F600418E
:10125000C4F200010AE000BF44F20001C4F201013F
:10126000884205D040F20041C4F20101884206D113
:10127000816801F00701062904BF0020704701685A
:1012800041F00101016000207047000070B5044684
:101290000068C5680669B10716D515F0020113D0BC
:1012A0006FF002010161012121778069800703D07D
:1012B0002046FFF7E7FD05E0204600F08FF82046C6
:1012C00000F08EF800202077700719D515F0040083
:1012D00016D020686FF00401016102212177806936
:1012E00010F4407F04D02046FFF7CCFD06E000BF9D
:1012F000204600F073F8204600F072F800202077B6
:10130000300717D515F0080014D020686FF00801D9
:10131000016104212177C069800703D02046FFF7CF
:10132000B1FD05E0204600F059F8204600F058F8DD
:1013300000202077F00619D515F0100016D020688F
:101340006FF01001016108212177C06910F4407F1E
:1013500004D02046FFF796FD06E000BF204600F0CF
:101360003DF8204600F03CF800202077F00718BF39
:1013700015F0010002D1300609D412E020686FF0A8
:1013800001010161204600F02DF8300609D515F065
:10139000800006D020686FF0800101612046FFF7D1
:1013A0000FFD700609D515F0400006D020686FF0DB
:1013B00040010161204600F023F8B00658BF70BD1F
:1013C00015F0200008D021686FF0200220460A6145
:1013D000BDE87040FFF7F6BC70BD0000704700002C
:1013E00070470000704700004FEAB101032984BF35
:1013F00000207047006800EB8100406B70470000E0
:1014000070470000FEE70000FEE70000FEE7000076
:101410007047000070470000FFF710B970B594B036
:1014200007AC20463421FEF7CBFF002543F64000F1
:101430000695CDE90455CDE902550195C4F20200A7
:101440000168012241F0805101600068022600F02D
:1014500080500190019847F200000195C4F200000D
:10146000016862F38F310160006800F44040019030
:10147000019810200B9008200F904020CDE9100615
:10148000204607960A92CDE90D65CDE91266FFF771
:1014900093FA18B172B600BFFEE700BF0F20CDE986
:1014A0000206902004904FF48050CDE9050502A873
:1014B0000021FFF77DF918B172B600BFFEE700BF4B
:1014C00014B070BD4EF68850CEF20000016841F4B1
:1014D000700101607047000010B540F27404C2F260
:1014E00000042046FFF7D2FE20460021FFF77CFFD4
:1014F00040F2BC01C2F20001086010BDB0B540F678
:10150000FF3E0568C4F2000E40F2004C7045C4F284
:10151000010C25DCB0F1804F2FD040F20043C4F223
:101520000003984229D040F60003C4F20003984219
:1015300023D041F6FF73C4F20003984228DC7045C3
:101540003ADCB0F1804F5BD040F20043C4F20003BC
:10155000984255D040F60003C4F200034EE000BFAD
:1015600040F60043C4F20003984206D0604504D020
:101570000023C4F201039842DBD14B6825F07002CE
:1015800043EA020541F6FF73C4F200039842D6DD38
:1015900043F6FF73C4F2010398421FDC42F20003DA
:1015A000C4F2000398422BD00023C4F201039842F6
:1015B00026D0604524D028E040F60043C4F2000362
:1015C00098421DD041F60003C4F20003984217D0A0
:1015D00041F60043C4F2000310E000BF44F20003F0
:1015E000C4F2010398420BD044F60003C4F2010395
:1015F000984205D044F20043C4F20103984204D15A
:10160000CB6825F4407243EA02050A688C684B698E
:10161000C46240F480648262644504BF0969016366
:10162000026825F0800142F00402194302600122A1
:1016300042610160B0BD0000FEE7000088B0FFF726
:101640000BF8FFF7EBFE002443F630000594CDE9DC
:101650000344CDE901440694C4F20200016841F05C
:10166000010101600068022100F001000690069867
:101670000120019005900020CDE90211C4F2020082
:1016800001A9FEF705FF40F27005C2F200054FF018
:101690008041284640F8041F43F67F614FF0FF3237
:1016A000C0E901148021CDE90644C0E90324816129
:1016B000FFF7CEFC10B172B6FEE700BF2C1D06A9E5
:1016C0002046FFF781FB18B172B600BFFEE700BFEE
:1016D000002001210190CDE902100F20049001A902
:1016E00020460022FFF7D0FB10B172B6FEE700BF24
:1016F00020460021FFF718FD686800BF416A296095
:10170000416A2960416A2960416A2960F6E7F1EE81
:10171000100A4FF6FF71C0F2C03120EA010040F01C
:101720004070E1EE100A7047000000000000000069
:10173000010203040607080902000000040000007B
:101740000800000010000000FDFFFFFFFBFFFFFF8F
:10175000F7FFFFFFEFFFFFFFFFFDFFFFFFFBFFFFB7
:10176000FFF7FFFFFFEFFFFF8817000800000020D2
:101770001000000028020008981700081000002040
:10178000B806000048020008010000001000000038
:081790000024F4000000000039
:04000005080001C529
:00000001FF
