:020000040800F2
:100000007806002091020008E90D0008E10D0008C3
:10001000E50D000889040008B50E00080000000086
:10002000000000000000000000000000F10D0008CA
:100030008D04000800000000ED0D0008F50D00081B
:10004000AB020008AB020008AB020008AB020008DC
:10005000AB020008AB020008AB020008AB020008CC
:10006000AB020008AB020008AB020008AB020008BC
:10007000AB020008AB020008AB020008AB020008AC
:10008000AB020008AB020008AB020008AB0200089C
:10009000AB020008AB020008AB020008AB0200088C
:1000A000AB020008AB020008AB020008AB0200087C
:1000B000AB020008AB020008AB020008AB0200086C
:1000C000AB020008AB020008AB020008AB0200085C
:1000D000AB020008AB020008AB020008AB0200084C
:1000E000AB020008AB020008AB020008AB0200083C
:1000F000AB020008AB020008AB020008AB0200082C
:10010000AB020008AB020008AB020008AB0200081B
:10011000AB020008AB020008AB020008AB0200080B
:10012000AB020008AB020008AB020008AB020008FB
:10013000AB0200080000000000000000AB02000855
:10014000AB020008AB020008AB020008AB020008DB
:10015000AB020008AB020008AB020008AB020008CB
:10016000AB020008AB020008AB020008AB020008BB
:10017000AB020008AB020008AB0200080000000060
:1001800000000000AB0200080000000000000000BA
:10019000AB0200080000000000000000AB020008F5
:1001A000000000000000000000000000AB0200089A
:1001B000AB020008AB020008AB020008AB0200086B
:1001C000AB02000800F002F800F052F814A696E81E
:1001D000000CB244B344DA4501D100F049F8BAE862
:1001E0000F000FA696E83000A5EB040504EB060708
:1001F000AAEB0704A7F101074FEA15154FEA3414DB
:10020000A4F10104AC4201D300F032F813F0010F65
:1002100018BFFB1A43F0010300F001F8DBE71847B1
:10022000AC0D0000CC0D0000103A24BF78C878C196
:10023000FAD8520724BF30C830C144BF04680C60EC
:1002400070470000704700000023002400250026AE
:10025000103A28BF78C1FBD8520728BF30C148BF29
:100260000B6070471FB500F09BFE1FBD10B510BDA1
:1002700000F0D0F81146FFF7F5FF00F01DFE00F08A
:10028000EEF803B4FFF7F2FF03BC00F0F5F800004E
:100290000948804709480047FEE7FEE7FEE7FEE71A
:1002A000FEE7FEE7FEE7FEE7FEE7FEE70448054956
:1002B000054A064B70470000A10E0008C501000862
:1002C00078000020780600207802002078020020C4
:1002D00053EA020C00F069802DE9F04B4FF0000664
:1002E000002B1FBFB3FA83F503FA05F424FA05F6D1
:1002F0005E4012BF1643B2FA82F502FA05F4C5F168
:1003000020051EBF22FA05FC44EA0C04203556EAFB
:10031000044C4FEA144418BF641C4FF000084FF01F
:100320000009904271EB030C39D3002919BFB1FACF
:1003300081F701FA07F6B0FA80F700FA07F6C7F17D
:1003400020071EBF20FA07FC46EA0C062037B6FB42
:10035000F4FCA7EB0507103F07F01F0BCBF12006BD
:100360002CFA06F60CFA0BFB44BFB3460026202FEE
:10037000A4BF5E464FF0000B5BEA060C08BF4FF0CF
:10038000010B19EB0B0948EB0608ABFB027C06FBE3
:1003900002CC0BFB03CCC01B71EB0C01C1E70B467D
:1003A000024641464846BDE8F08B13B5084318BFE6
:1003B0004FF0FF300146AFF30080BDE81C407047AE
:1003C0004FF0000200B5134694469646203922BFEE
:1003D000A0E80C50A0E80C50B1F12001BFF4F7AF39
:1003E000090728BFA0E80C5048BF0CC05DF804EB1B
:1003F000890028BF40F8042B08BF704748BF20F889
:10040000022B11F0804F18BF00F8012B7047704786
:1004100070477047754600F02BF8AE4605006946F8
:10042000534620F00700854618B020B5FFF73EFF81
:10043000BDE820404FF000064FF000074FF00008E5
:100440004FF0000BAC46ACE8C009ACE8C009ACE822
:10045000C009ACE8C00921F007018D46704710B50E
:100460000446AFF300802046BDE81040FFF709BF07
:10047000004870471000002001491820ABBEFEE77D
:100480002600020070470000FEE7000070470000F1
:10049000B0B5044600F0EEF8054640F20000C2F2A6
:1004A00000000078611C18BF044400BF00F0E2F8AF
:1004B000401BA042FAD3B0BD2DE9F04F83B000F14C
:1004C000200200F13E4741F60005009207F1FF7758
:1004D000C4F2020507224FEAB726A84208BF062247
:1004E00000254FF000084FF00009062E38BF4FEAF4
:1004F000B72201920AE000BF09F1010908F10208E0
:10050000B9F1100F05F1040500F0A2800F68012277
:1005100002FA09FE17EA0E0AEED0D1F804C003224F
:100520000CF003077E1E02FA08F4012E6FEA040B9A
:1005300012D88468CE6804EA0B0406FA08F634433D
:100540008460446824EA0E06CCF3001404FA09F42B
:100550002643466004E000BF032F01D103271EE0BD
:10056000C6688C6806EA0B0604FA08F42643022FD4
:10057000C66014D16FF00302009E02EA590756F8D4
:1005800007C005F01C040F220B69A2402CEA0202EE
:10059000A3401A43F251D1F804C00CF003070268DB
:1005A00007FA08F302EA0B021A431CF4403F026008
:1005B000A2D0002243F644030292C4F202031A6856
:1005C00043F6004442F480421A601A68C4F20104FF
:1005D00002F480420292029A29F003024FF6084C7C
:1005E0002244CFF6FF7C52F80C3005F00C070F26A2
:1005F000BE40B343019E06FA07F73B4342F80C3076
:10060000A2684B6842EA0A0743F60C4CDE0258BF68
:1006100022EA0A07A760C4F2010CDCF800209E025F
:1006200042EA0A0758BF22EA0A07CCF8007062685B
:100630009E0342EA0A0758BF22EA0A076760226857
:10064000DB0342EA0A0758BF22EA0A07276053E79A
:1006500003B0BDE8F08F0000426902EA0103914354
:1006600041EA034181617047002A08BF09048161A2
:100670007047000040F27400C2F20000006870474A
:1006800040F2000040F27401C2F20000C2F2000128
:1006900000780A68104408607047000080B543F68F
:1006A0000040C4F20200016841F400710160016879
:1006B00041F480610160016841F4807101600320B0
:1006C00000F076F8002000F005F800F027F8002090
:1006D00080BD000070B540F20006C2F2000640F294
:1006E00008013278C2F200014FF47A730968B3FB53
:1006F000F2F20446B1FBF2F1084600F05BFB0F2C6E
:100700004FF0010508D838B94FF0FF3021460022DC
:10071000002500F021F87460284670BD82B00020EA
:1007200043F640010190C4F202014A6842F480425B
:100730004A604A6802F480420192019A0090086877
:1007400040F080500860086800F0805000900098E9
:10075000072002B000F02CB810B54EF60C5CCEF2BB
:10076000000CDCF80030C3F3022E8EF00704042CDA
:1007700028BF0424BEF103034FF0FF3E0EFA04F439
:1007800038BF0023A14399400EFA03F39A43114363
:1007900000F00F0200F160430901043A03F56443DD
:1007A0006244002848BF02F10C03197010BD00001C
:1007B0004EF60C51CEF200010A684FF6FF031A40C4
:1007C00060F30A2242F0806040F0FD7008607047DC
:1007D000002804BF012070472DE9F04143F60808C6
:1007E000C4F202080446D8F8F8030D4600F00F00E2
:1007F000814207D988F8F853D8F8F80300F00F00C1
:10080000A84277D12068810717D5410705D5D8F8C8
:10081000001041F4E051C8F80010010705D5D8F8E0
:10082000001041F46041C8F80010D8F80010A26828
:1008300021F0F0011143C8F80010C00740D1D8F8EA
:10084000F80300F00F00854207D288F8F853D8F873
:10085000F80300F00F00A8424CD12068410707D5EB
:10086000D8F80010E26821F4E0511143C8F80010F4
:10087000000708D5D8F80000216920F4604040EA5C
:10088000C100C8F8000000F055F8D8F8001040F694
:10089000BA72C1F30311C0F60002515C40F20802C3
:1008A00020FA01F140F20400C2F200000068C2F236
:1008B00000021160FFF70EFF0020BDE8F08100BFCD
:1008C0006068811E022907D258F8081C89015CBFA4
:1008D0000120BDE8F08111E0012807D158F8081C7B
:1008E00089035CBF0120BDE8F08107E058F8081CCF
:1008F000890703D40120BDE8F08100BFD8F80010BB
:1009000021F003010843C8F80000FFF7B3FE0646D4
:1009100041F28837D8F80000616800F00C00B0EBB5
:10092000810F8CD0FFF7A6FE801BB842F2D90320BE
:10093000BDE8F08110B543F60404C4F20204606817
:10094000C0F3810142F20040C0F2F400DFE801F0A0
:100950004202081841F20020C0F27A0010BD00BF28
:10096000216801F03F02216823684902C3F388111E
:1009700016D4A1FB00010023FFF7AAFC17E000BF7B
:10098000216801F03F02216823684902C3F38811FE
:1009900014D4A1FB00010023FFF79AFC15E000BF6F
:1009A00041F20020C0F27A004843B0FBF2F0216827
:1009B0000222C1F3014102EB410109E041F20020B2
:1009C000C0F27A004843B0FBF2F02168C1F3027133
:1009D000B0FBF1F010BD0000002804BF01207047FB
:1009E0002DE9F04182B00446007843F60006C007C6
:1009F000C4F202060CD0B06800F00C00042840F0ED
:100A000089803068800303D56068002800F0508139
:100A10002078800723D5B06810F00C0F11D0B06893
:100A200000F00C00082802D17068400209D5B068B7
:100A300000F00C000C2840F09F807068400200F12C
:100A40009B803068800703D5E068012840F0308142
:100A50003068216920F0F80040EAC1003060207859
:100A6000000713D4207840072AD4A569002D00F090
:100A70001A81B06800F00C00082840F0AB80012D0E
:100A800040F0E880012002B0BDE8F08160690028F4
:100A900040F20000C4F2472000F088800121C0F835
:100AA000801EFFF7E7FD0546706F8007DAD4FFF779
:100AB000E1FD401B0228F7D9032002B0BDE8F08118
:100AC000306C5FEAC0080AD400200190306C40F01E
:100AD00080503064306C00F080500190019847F2F3
:100AE0000007C4F200073868C00537D4386840F4FE
:100AF00080703860FFF7BEFD054600BF3868C0054E
:100B00002CD4FFF7B7FD401B0228F7D9032002B011
:100B1000BDE8F081B06800F00C00082803D17068CF
:100B200040023FF56EAFB06800F00C000C2803D116
:100B3000706840023FF565AF61683068B1F5803F8D
:100B400007D0B1F5A02F40F0CB8040F4802030607A
:100B5000306840F480303060CBE000BFA168306F77
:100B6000012905D0052957D140F004003067306FC6
:100B700040F00100306759E0E068002800F09C80F8
:100B80000020C4F2472001210160FFF773FD0546F4
:100B9000306880073FF55CAFFFF76CFD401B022813
:100BA0004FF00300F4D902B0BDE8F0810021C0F895
:100BB000801EFFF75FFD0546706F80077FF552AF1F
:100BC000FFF758FD401B0228F6D9032002B0BDE80C
:100BD000F08100BF0027C4F2472700203866FFF7E6
:100BE00049FD022D05460BD13068800140F192800D
:100BF000FFF740FD401B02284FF00300F4D9D2E775
:100C0000306880014FD5FFF735FD401B02284FF0BB
:100C10000300F5D9C7E700BF20F001003067306F4F
:100C2000002920F00400306700F09880FFF722FDD3
:100C3000054641F2883700BF306F800700F1A08081
:100C4000FFF718FD401BB842F6D9032002B0BDE8FB
:100C5000F08100BF7068E16900F480028A4227D108
:100C6000216A00F03F028A4222D147F6C071626ACF
:100C70000140B1EB821F1BD1A16A4FF6FF73C9037C
:100C8000994300F44032A1F580318A4210D1E16AE3
:100C900000F07062B2EB016F0AD1216B00F0E0400E
:100CA000B0EB017F04D1002002B0BDE8F08100BFAD
:100CB000012002B0BDE8F0810020C4F247200021ED
:100CC0000160FFF7D7FC0546306880077FF5C7AEA7
:100CD000FFF7D0FC401B02284FF00300F4D962E775
:100CE00020F4803030603068002920F480203060AB
:100CF00050D0FFF7BFFC0546306880033FF588AE53
:100D0000FFF7B8FC401B6428F6D9032002B0BDE809
:100D1000F08100BF04F11C052FCD246B084340EA8D
:100D20008210D9034FF6FF729143A1F5803140EA5A
:100D30000560084340EA0470706001203866FFF7E0
:100D400099FC044630688001ADD4FFF793FC001B8A
:100D500002284FF00300F5D925E700BFFFF78AFC12
:100D6000054641F2883700BF306F800708D5FFF78E
:100D700081FC401BB8424FF00300F5D913E700BFD8
:100D8000B8F1000F3FF571AE306C20F08050306448
:100D90006BE600BFFFF76EFC054600BF30688003BE
:100DA0007FF536AEFFF766FC401B64284FF003006A
:100DB000F4D9F8E6411E0020B0EB116F1CBF0120F2
:100DC00070474EF21002CEF2000251604EF62351EF
:100DD000CEF20001F0230B70072190601160704784
:100DE000FEE70000FEE70000FEE70000704700009D
:100DF00070470000FFF744BC70B594B007AC2046C4
:100E00003421FFF7DDFA002543F640000695CDE9D1
:100E10000455CDE902550195C4F202000168012292
:100E200041F0805101600068022600F0805001907E
:100E3000019847F200000195C4F20000016862F3D6
:100E40008F310160006800F440400190019810204B
:100E50000B9008200F906420CDE9100620460796DD
:100E60000A92CDE90D65CDE91266FFF7B5FD18B11F
:100E700072B600BFFEE700BF0F20CDE902064FF4B7
:100E8000A05005904FF48050069002A803210495CD
:100E9000FFF79EFC10B172B6FEE700BF14B070BD44
:100EA0004EF68850CEF20000016841F470010160F6
:100EB00070470000FEE7000086B00024C4F2020480
:100EC000FFF7ECFBFFF798FF002643F6300005968E
:100ED000CDE90366CDE901660096C4F2020001681F
:100EE000002241F0040101600168202701F00401A3
:100EF000009100990096016841F08001016001684D
:100F000001F08001009100990096016841F0010113
:100F10000160016801F001010091009900960168EB
:100F200041F0020101600068202100F00200009001
:100F300000982046FFF798FB4FF4005001904FF4C3
:100F4000041001ADCDE9020604F500602946FFF763
:100F5000B3FA0C2001900220CDE902060320049090
:100F60000720059020462946FFF7A6FA0120CDE983
:100F700002062046294601970496FFF79DFA40F2A3
:100F80007005C2F2000500BF20462021FFF764FB78
:100F90004FF47A70FFF77CFA286801302860F3E795
:100FA000F1EE100A4FF6FF71C0F2C03120EA0100E5
:100FB00040F04070E1EE100A7047000000000000B1
:100FC000000001020304060708090000F00F0008F2
:100FD0000000002010000000280200080010000897
:100FE0001000002068060000480200080000000011
:100FF00001000000100000000024F40000000000C8
:04000005080001C529
:00000001FF
